:020000040FFFEC
:1080000000000200A82823BDA82823BDA82823BD5E
:10801000A82823BDA82823BDA82823BDA82823BDA0
:10802000A82823BDA82823BDA82823BDA82823BD90
:10803000A82823BDA82823BDA82823BDA82823BD80
:10804000A82823BDA82823BDA82823BDA82823BD70
:10805000A82823BDA82823BDA82823BDA82823BD60
:10806000A82823BDA82823BDFFFFFFFF00501C0E3A
:1080700000040000A82823BDA82823BDA82823BDEC
:10808000A82823BDA82823BDA82823BDA82823BD30
:10809000A82823BDA82823BDA82823BDA82823BD20
:1080A000A82823BDA82823BDA82823BDA82823BD10
:1080B000A82823BDA82823BDA82823BDA82823BD00
:1080C000A82823BDA82823BDA82823BDA82823BDF0
:1080D000A82823BDA82823BDA82823BDA82823BDE0
:1080E000A82823BDA82823BDA82823BDA82823BDD0
:1080F000A82823BDA82823BDA82823BDA82823BDC0
:00000001FF
